:100000000C94A5000C94CD000C94CD000C94CD0064
:100010000C94CD000C94CD000C94CD000C94CD002C
:100020000C94CD000C94CD000C94CD000C94CD001C
:100030000C94CD000C94CD000C94CD000C94CD000C
:100040000C94A4020C94CD000C9414030C94EE02B6
:100050000C94CD000C94CD000C94CD000C94CD00EC
:100060000C94CD000C94CD00830588058D05920578
:1000700097059C05A105A605A905AC05CA05CA05F5
:10008000CA05CA05CA05CA05CA05CA058A04CA0539
:10009000CA05CA05780416055C05F7043D05CA05BE
:1000A000BB04CA05CA05CA05CA05CA05CD04CA05E6
:1000B000CA05BD05C405B605CA05CA05CA05CA05EF
:1000C000CA05CA05CA05CA05CA05CA05CA05CA05B8
:1000D000CA05CA05CA05CA05CA05CA05CA05CA05A8
:1000E000CA05CA05CA05CA05CA05AF05CA05CA05B3
:1000F000CA05C105C805BA050000000800020100D4
:1001000000030407000000000000000000000000E1
:10011000250028002B0000000000240027002A00F2
:10012000040404040404040402020202020203039D
:1001300003030303010204081020408001020408A5
:100140001020010204081020DB0511241FBECFEF90
:10015000D8E0DEBFCDBF11E0A0E0B1E0EAE2FCE014
:1001600002C005900D92A431B107D9F721E0A4E1B6
:10017000B1E001C01D92AF3BB207E1F710E0C5EA64
:10018000D0E004C02197FE010E940806C43AD107BE
:10019000C9F70E9446030C9413060C94000090E0EB
:1001A000FC01EC5CFE4F2491FC01E05EFE4F84916B
:1001B000882399F090E0880F991FFC01EA5EFE4FBA
:1001C000A591B491FC01E45FFE4F859194918FB7A6
:1001D000F894EC91E22BEC938FBF0895CF92DF92CD
:1001E000EF92FF920F931F93CF93DF936C017A01ED
:1001F0008B01C0E0D0E0CE15DF0589F0D8016D910C
:100200008D01D601ED91FC910190F081E02DC601A8
:100210000995892B11F47E0102C02196ECCFC7010C
:10022000DF91CF911F910F91FF90EF90DF90CF90D2
:100230000895089580E090E00895FC01538D448D69
:10024000252F30E0842F90E0821B930B541710F081
:10025000CF96089501970895FC01918D828D98178E
:1002600061F0828DDF01A80FB11D5D968C91928D9A
:100270009F5F9F73928F90E008958FEF9FEF089597
:10028000FC01918D828D981731F0828DE80FF11D60
:10029000858D90E008958FEF9FEF0895FC01918D7B
:1002A000228D892F90E0805C9F4F821B91098F7374
:1002B0009927089589E191E00E944E0121E0892B60
:1002C00009F420E0822F0895FC01848DDF01A80F3E
:1002D000B11DA35ABF4F2C91848D90E001968F736E
:1002E0009927848FA689B7892C93A089B1898C918D
:1002F00080648C93938D848D981306C00288F38953
:10030000E02D80818F7D80830895EF92FF920F937F
:100310001F93CF93DF93EC0181E0888F9B8D8C8DB1
:10032000981305C0E889F989808185FD24C0F62EDF
:100330000B8D10E00F5F1F4F0F731127E02E8C8D78
:10034000E8120CC00FB607FCFACFE889F989808162
:1003500085FFF5CFCE010E946401F1CF8B8DFE01A8
:10036000E80FF11DE35AFF4FF0820B8FEA89FB89FA
:100370008081806207C0EE89FF896083E889F989FE
:1003800080818064808381E090E0DF91CF911F9134
:100390000F91FF90EF900895CF93DF93EC01888D3C
:1003A0008823C9F0EA89FB89808185FD05C0A88979
:1003B000B9898C9186FD0FC00FB607FCF5CF8081FF
:1003C00085FFF2CFA889B9898C9185FFEDCFCE0149
:1003D0000E946401E7CFDF91CF91089580E090E023
:1003E000892B29F00E945A0181110C940000089574
:1003F00090E0FC01E850FF4F3491FC01EC5CFE4FB3
:100400002491FC01E05EFE4FE491EE2309F43BC031
:10041000332339F1333091F038F43130A9F03230F0
:1004200001F584B58F7D12C0373091F03830A1F0DE
:100430003430B9F4809180008F7D03C080918000BA
:100440008F77809380000DC084B58F7784BD09C0FD
:100450008091B0008F7703C08091B0008F7D809332
:10046000B000F0E0EE0FFF1FE45FFE4FA591B491E6
:100470008FB7F894EC91611103C020952E2301C031
:100480002E2B2C938FBF08951F93CF93DF93182F9C
:10049000EB010E94CF00209711F460E004C0CF3F31
:1004A000D10539F461E0812FDF91CF911F910C9438
:1004B000F801E12FF0E0E850FF4FE491E330F9F06C
:1004C00048F4E130B9F0E230A1F584B5806284BD32
:1004D000C8BD34C0E730E9F0E83019F1E43049F53F
:1004E00080918000806280938000D0938B00C093C5
:1004F0008A0024C084B5806884BDC7BD1FC08091B8
:100500008000806880938000D0938900C093880029
:1005100015C08091B00080688093B000C093B30094
:100520000DC08091B00080628093B000C093B40091
:1005300005C0C038D1050CF0B5CFAFCFDF91CF915A
:100540001F9108950E940E061F920F920FB60F92F0
:1005500011242F933F938F939F93AF93BF938091D9
:10056000BB019091BC01A091BD01B091BE01309141
:10057000BA0123E0230F2D3720F40196A11DB11DF0
:1005800005C026E8230F0296A11DB11D2093BA01D4
:100590008093BB019093BC01A093BD01B093BE01B9
:1005A0008091B6019091B701A091B801B091B901C5
:1005B0000196A11DB11D8093B6019093B701A09340
:1005C000B801B093B901BF91AF919F918F913F91C5
:1005D0002F910F900FBE0F901F9018951F920F92A2
:1005E0000FB60F9211242F933F934F935F936F9306
:1005F0007F938F939F93AF93BF93EF93FF9389E183
:1006000091E00E946401FF91EF91BF91AF919F91A2
:100610008F917F916F915F914F913F912F910F90AB
:100620000FBE0F901F9018951F920F920FB60F924A
:1006300011242F938F939F93EF93FF93E0912901C0
:10064000F0912A018081E0912F01F091300182FD2B
:1006500012C09081809132018F5F8F73209133019E
:10066000821751F0E0913201F0E0E75EFE4F958F86
:100670008093320101C08081FF91EF919F918F9112
:100680002F910F900FBE0F901F901895789484B5FE
:10069000826084BD84B5816084BD85B5826085BD7E
:1006A00085B5816085BD80916E00816080936E000C
:1006B00010928100809181008260809381008091FE
:1006C00081008160809381008091800081608093AF
:1006D00080008091B10084608093B1008091B0006F
:1006E00081608093B00080917A00846080937A006A
:1006F00080917A00826080937A0080917A00816094
:1007000080937A0080917A00806880937A001092BA
:10071000C1008EE00E94CF008FE00E94CF0080E1F8
:100720000E94CF0081E10E94CF0082E10E94CF00B1
:1007300085E00E94CF0086E00E94CF008AE00E9400
:10074000CF008BE00E94CF0082E00E94CF0083E0C8
:100750000E94CF0084E00E94CF0087E00E94CF007B
:1007600088E00E94CF0089E00E94CF008CE00E94C8
:10077000CF008DE00E94CF00E0912901F0912A0185
:1007800082E08083E0912501F09126011082E091C2
:100790002701F09128018FEC808310923101E091C4
:1007A0002D01F0912E0186E08083E0912B01F091E4
:1007B0002C01808180618083E0912B01F0912C01DC
:1007C000808188608083E0912B01F0912C018081F1
:1007D00080688083E0912B01F0912C0180818F7DD6
:1007E00080834EEB242E312C5FEA452E512C60EA9B
:1007F000662E712C71E9E72EF12CE2E8CE2ED12C79
:10080000F3E7AF2EB12CA4E68A2E912C89E191E07A
:100810000E944E01181619060CF0BCC189E191E046
:100820000E942C018C01909318018093170160E0C5
:1008300082E00E94F80160E083E00E94F801C0912C
:100840000001D0910101BE0185E00E94440260E0F8
:1008500084E00E94F80160E087E00E94F801BE0198
:1008600086E00E94440260E088E00E94F80160E0B7
:1008700089E00E94F801BE018AE00E94440260E023
:100880008CE00E94F80160E08DE00E94F801BE015A
:100890008BE00E94440280911601882309F47DC1F7
:1008A00061E08EE00E94F80161E08FE00E94F801B3
:1008B00080911501882309F476C161E080E10E94EE
:1008C000F80161E081E10E94F80180911401882320
:1008D00009F46FC161E082E10E94F801F801F0972C
:1008E000E834F10508F056C1EC5CFF4F0C940806A3
:1008F00061E082E00E94F80160E083E00E94F8017C
:10090000BE0185E00E94440260E084E00E94F8019C
:1009100061E054C060E082E00E94F80161E083E0A1
:100920000E94F801BE0185E00E94440261E084E07B
:100930000E94F80160E087E00E94F801BE0186E0B5
:100940000E94440261E088E00E94F80160E089E0D2
:100950000E94F801BE018AE00E94440260E08CE03F
:100960000E94F80161E08DE00E94F801BE018BE079
:100970000E9444020FC161E082E00E94F80160E041
:1009800083E00E94F801BE0185E00E94440260E01D
:1009900084E00E94F80161E0CECF60E082E00E9436
:1009A000F80161E083E00E94F801BE0185E00E9449
:1009B000440261E084E00E94F80160E087E00E9468
:1009C000F801BE0186E00E94440260E088E00E94D7
:1009D000F80161E089E00E94F801BE018AE00E940E
:1009E000440261E08CE00E94F80160E0BCCF61E06D
:1009F00082E00E94F80160E083E00E94F8018E012D
:100A0000D7FF02C00D5F1F4F1595079515950795E8
:100A1000B80185E00E94440260E084E00E94F80191
:100A200061E087E00E94F801B801CCCF61E082E08C
:100A30000E94F80160E083E00E94F801BE0185E0B9
:100A40000E94440260E084E00E94F80161E087E0D7
:100A50000E94F801BE0186E00E94440260E088E046
:100A60000E94F80161E089E00E94F801D7FD239619
:100A7000D595C795D595C795B0CF60E082E00E9427
:100A8000F80161E083E00E94F8018E01D7FF02C007
:100A90000D5F1F4F1595079515950795B80185E0D2
:100AA0000E94440261E084E00E94F80160E087E077
:100AB0000E94F801B80143CF60E082E00E94F80193
:100AC00061E083E00E94F801BE0185E00E944402DB
:100AD00061E084E00E94F80160E087E00E94F80194
:100AE000BE0186E00E94440261E088E00E94F801B5
:100AF00060E089E00E94F801D7FD2396D595C7955F
:100B0000D595C79527CF909201018092000142C0F0
:100B1000B0920101A09200013DC0D0920101C092AB
:100B2000000138C0F0920101E092000133C07092E0
:100B30000101609200012EC050920101409200011B
:100B400029C0309201012092000124C08DEC90E078
:100B500008C08CED90E005C08BEE90E002C08FEFF6
:100B600090E0909301018093000114C091E0909374
:100B7000160110C0109216010DC081E0809315017E
:100B800009C01092150106C091E09093140102C0B3
:100B9000109214010E94EE0139CE60E08EE00E94B6
:100BA000F80160E082CE60E080E10E94F80160E040
:100BB00089CE60E090CEE9E1F1E01382128288EE06
:100BC00093E0A0E0B0E084839583A683B78386E0BA
:100BD00091E09183808385EC90E09587848784EC15
:100BE00090E09787868780EC90E0918B808B81ECFA
:100BF00090E0938B828B82EC90E0958B848B86ECDB
:100C000090E0978B868B118E128E138E148E089522
:100C1000EE0FFF1F0590F491E02D099481E090E024
:0A0C2000F8940C941306F894FFCF2B
:100C2A006400000000008501EE001D01CC014E01A8
:040C3A002C01400148
:107E0000112484B714BE81FFF0D085E080938100F7
:107E100082E08093C00088E18093C10086E0809377
:107E2000C20080E18093C4008EE0C9D0259A86E02C
:107E300020E33CEF91E0309385002093840096BBD3
:107E4000B09BFECF1D9AA8958150A9F7CC24DD24C4
:107E500088248394B5E0AB2EA1E19A2EF3E0BF2EE7
:107E6000A2D0813461F49FD0082FAFD0023811F036
:107E7000013811F484E001C083E08DD089C08234E0
:107E800011F484E103C0853419F485E0A6D080C0E4
:107E9000853579F488D0E82EFF2485D0082F10E0AE
:107EA000102F00270E291F29000F111F8ED06801E7
:107EB0006FC0863521F484E090D080E0DECF843638
:107EC00009F040C070D06FD0082F6DD080E0C81688
:107ED00080E7D80618F4F601B7BEE895C0E0D1E017
:107EE00062D089930C17E1F7F0E0CF16F0E7DF06D8
:107EF00018F0F601B7BEE89568D007B600FCFDCFD4
:107F0000A601A0E0B1E02C9130E011968C91119780
:107F100090E0982F8827822B932B1296FA010C0160
:107F200087BEE89511244E5F5F4FF1E0A038BF0790
:107F300051F7F601A7BEE89507B600FCFDCF97BE46
:107F4000E89526C08437B1F42ED02DD0F82E2BD052
:107F50003CD0F601EF2C8F010F5F1F4F84911BD097
:107F6000EA94F801C1F70894C11CD11CFA94CF0C13
:107F7000D11C0EC0853739F428D08EE10CD085E9AC
:107F80000AD08FE07ACF813511F488E018D01DD067
:107F900080E101D065CF982F8091C00085FFFCCF94
:107FA0009093C60008958091C00087FFFCCF809118
:107FB000C00084FD01C0A8958091C6000895E0E648
:107FC000F0E098E1908380830895EDDF803219F02E
:107FD00088E0F5DFFFCF84E1DECF1F93182FE3DFCA
:107FE0001150E9F7F2DF1F91089580E0E8DFEE27F6
:047FF000FF270994CA
:027FFE00040479
:0400000300007E007B
:00000001FF
